{
  "contractName": "HelloWorld",
  "abi": [
    {
      "constant": true,
      "inputs": [],
      "name": "name",
      "outputs": [
        {
          "internalType": "string",
          "name": "",
          "type": "string"
        }
      ],
      "payable": false,
      "stateMutability": "view",
      "type": "function"
    },
    {
      "constant": false,
      "inputs": [
        {
          "internalType": "string",
          "name": "_name",
          "type": "string"
        }
      ],
      "name": "setName",
      "outputs": [],
      "payable": false,
      "stateMutability": "nonpayable",
      "type": "function"
    },
    {
      "constant": true,
      "inputs": [],
      "name": "sayHello",
      "outputs": [
        {
          "internalType": "string",
          "name": "",
          "type": "string"
        }
      ],
      "payable": false,
      "stateMutability": "view",
      "type": "function"
    }
  ],
  "bytecode": "0x608060405234801561001057600080fd5b5061043c806100206000396000f3fe608060405234801561001057600080fd5b50600436106100415760003560e01c806306fdde0314610046578063c47f0027146100c9578063ef5fb05b14610184575b600080fd5b61004e610207565b6040518080602001828103825283818151815260200191508051906020019080838360005b8381101561008e578082015181840152602081019050610073565b50505050905090810190601f1680156100bb5780820380516001836020036101000a031916815260200191505b509250505060405180910390f35b610182600480360360208110156100df57600080fd5b81019080803590602001906401000000008111156100fc57600080fd5b82018360208201111561010e57600080fd5b8035906020019184600183028401116401000000008311171561013057600080fd5b91908080601f016020809104026020016040519081016040528093929190818152602001838380828437600081840152601f19601f8201169050808301925050505050505091929192905050506102a5565b005b61018c6102bf565b6040518080602001828103825283818151815260200191508051906020019080838360005b838110156101cc5780820151818401526020810190506101b1565b50505050905090810190601f1680156101f95780820380516001836020036101000a031916815260200191505b509250505060405180910390f35b60008054600181600116156101000203166002900480601f01602080910402602001604051908101604052809291908181526020018280546001816001161561010002031660029004801561029d5780601f106102725761010080835404028352916020019161029d565b820191906000526020600020905b81548152906001019060200180831161028057829003601f168201915b505050505081565b80600090805190602001906102bb929190610362565b5050565b6060600060405160200180807f48656c6c6f200000000000000000000000000000000000000000000000000000815250600601828054600181600116156101000203166002900480156103495780601f10610327576101008083540402835291820191610349565b820191906000526020600020905b815481529060010190602001808311610335575b5050915050604051602081830303815290604052905090565b828054600181600116156101000203166002900490600052602060002090601f016020900481019282601f106103a357805160ff19168380011785556103d1565b828001600101855582156103d1579182015b828111156103d05782518255916020019190600101906103b5565b5b5090506103de91906103e2565b5090565b61040491905b808211156104005760008160009055506001016103e8565b5090565b9056fea265627a7a72315820967584190efa8421c4529deb98aeb01c7d37a5ce534ad151536a5d763c509ce064736f6c63430005100032",
  "source": "pragma solidity >=0.4.2;\n\ncontract HelloWorld {\n  string public name;\n\n  function setName(string memory _name) public {\n    name = _name;\n  }\n\n  function sayHello() public view returns(string memory) {\n    return string(abi.encodePacked(\"Hello \", name));\n  }\n}",
  "sourcePath": "/home/hoang/workspace/election-4-watch-events/contracts/HelloWorld.sol",
  "compiler": {
    "name": "solc",
    "version": "0.5.16+commit.9c3226ce.Emscripten.clang"
  },
  "schemaVersion": "3.4.1",
  "updatedAt": "2021-07-17T13:27:11.105Z",
  "devdoc": {
    "methods": {}
  },
  "userdoc": {
    "methods": {}
  }
}